{
  "contractName": "PaperStorage",
  "abi": [
    {
      "anonymous": false,
      "inputs": [
        {
          "indexed": false,
          "internalType": "uint256",
          "name": "id",
          "type": "uint256"
        },
        {
          "indexed": false,
          "internalType": "uint256",
          "name": "paperId",
          "type": "uint256"
        },
        {
          "indexed": false,
          "internalType": "string",
          "name": "downloader",
          "type": "string"
        },
        {
          "indexed": false,
          "internalType": "uint256",
          "name": "timestamp",
          "type": "uint256"
        }
      ],
      "name": "PaperDownloaded",
      "type": "event"
    },
    {
      "anonymous": false,
      "inputs": [
        {
          "indexed": false,
          "internalType": "uint256",
          "name": "id",
          "type": "uint256"
        },
        {
          "indexed": false,
          "internalType": "string",
          "name": "cid",
          "type": "string"
        },
        {
          "indexed": false,
          "internalType": "string",
          "name": "uploader",
          "type": "string"
        },
        {
          "indexed": false,
          "internalType": "uint256",
          "name": "timestamp",
          "type": "uint256"
        }
      ],
      "name": "PaperUploaded",
      "type": "event"
    },
    {
      "constant": true,
      "inputs": [],
      "name": "downloadCount",
      "outputs": [
        {
          "internalType": "uint256",
          "name": "",
          "type": "uint256"
        }
      ],
      "payable": false,
      "stateMutability": "view",
      "type": "function"
    },
    {
      "constant": true,
      "inputs": [
        {
          "internalType": "uint256",
          "name": "",
          "type": "uint256"
        }
      ],
      "name": "downloads",
      "outputs": [
        {
          "internalType": "uint256",
          "name": "id",
          "type": "uint256"
        },
        {
          "internalType": "uint256",
          "name": "paperId",
          "type": "uint256"
        },
        {
          "internalType": "string",
          "name": "downloader",
          "type": "string"
        },
        {
          "internalType": "uint256",
          "name": "timestamp",
          "type": "uint256"
        }
      ],
      "payable": false,
      "stateMutability": "view",
      "type": "function"
    },
    {
      "constant": true,
      "inputs": [],
      "name": "paperCount",
      "outputs": [
        {
          "internalType": "uint256",
          "name": "",
          "type": "uint256"
        }
      ],
      "payable": false,
      "stateMutability": "view",
      "type": "function"
    },
    {
      "constant": true,
      "inputs": [
        {
          "internalType": "uint256",
          "name": "",
          "type": "uint256"
        }
      ],
      "name": "papers",
      "outputs": [
        {
          "internalType": "uint256",
          "name": "id",
          "type": "uint256"
        },
        {
          "internalType": "string",
          "name": "cid",
          "type": "string"
        },
        {
          "internalType": "string",
          "name": "uploader",
          "type": "string"
        },
        {
          "internalType": "uint256",
          "name": "timestamp",
          "type": "uint256"
        }
      ],
      "payable": false,
      "stateMutability": "view",
      "type": "function"
    },
    {
      "constant": false,
      "inputs": [
        {
          "internalType": "string",
          "name": "_cid",
          "type": "string"
        },
        {
          "internalType": "string",
          "name": "_uploader",
          "type": "string"
        }
      ],
      "name": "uploadPaper",
      "outputs": [],
      "payable": false,
      "stateMutability": "nonpayable",
      "type": "function"
    },
    {
      "constant": true,
      "inputs": [
        {
          "internalType": "uint256",
          "name": "_id",
          "type": "uint256"
        }
      ],
      "name": "getPaper",
      "outputs": [
        {
          "internalType": "string",
          "name": "",
          "type": "string"
        },
        {
          "internalType": "string",
          "name": "",
          "type": "string"
        },
        {
          "internalType": "uint256",
          "name": "",
          "type": "uint256"
        }
      ],
      "payable": false,
      "stateMutability": "view",
      "type": "function"
    },
    {
      "constant": false,
      "inputs": [
        {
          "internalType": "uint256",
          "name": "_paperId",
          "type": "uint256"
        },
        {
          "internalType": "string",
          "name": "_downloader",
          "type": "string"
        }
      ],
      "name": "recordDownload",
      "outputs": [],
      "payable": false,
      "stateMutability": "nonpayable",
      "type": "function"
    }
  ],
  "bytecode": "0x608060405234801561001057600080fd5b50610eab806100206000396000f3fe608060405234801561001057600080fd5b506004361061007d5760003560e01c8063a56c2cb91161005b578063a56c2cb914610379578063d5a43cff14610397578063e1fbd3801461045c578063ee4ea08c146105ae5761007d565b806307993f04146100825780635e775a271461019c5780639fd50b2d146102bd575b600080fd5b6100ae6004803603602081101561009857600080fd5b81019080803590602001909291905050506105cc565b604051808060200180602001848152602001838103835286818151815260200191508051906020019080838360005b838110156100f85780820151818401526020810190506100dd565b50505050905090810190601f1680156101255780820380516001836020036101000a031916815260200191505b50838103825285818151815260200191508051906020019080838360005b8381101561015e578082015181840152602081019050610143565b50505050905090810190601f16801561018b5780820380516001836020036101000a031916815260200191505b509550505050505060405180910390f35b6101c8600480360360208110156101b257600080fd5b81019080803590602001909291905050506107f6565b604051808581526020018060200180602001848152602001838103835286818151815260200191508051906020019080838360005b838110156102185780820151818401526020810190506101fd565b50505050905090810190601f1680156102455780820380516001836020036101000a031916815260200191505b50838103825285818151815260200191508051906020019080838360005b8381101561027e578082015181840152602081019050610263565b50505050905090810190601f1680156102ab5780820380516001836020036101000a031916815260200191505b50965050505050505060405180910390f35b6102e9600480360360208110156102d357600080fd5b8101908080359060200190929190505050610956565b6040518085815260200184815260200180602001838152602001828103825284818151815260200191508051906020019080838360005b8381101561033b578082015181840152602081019050610320565b50505050905090810190601f1680156103685780820380516001836020036101000a031916815260200191505b509550505050505060405180910390f35b610381610a1e565b6040518082815260200191505060405180910390f35b61045a600480360360408110156103ad57600080fd5b8101908080359060200190929190803590602001906401000000008111156103d457600080fd5b8201836020820111156103e657600080fd5b8035906020019184600183028401116401000000008311171561040857600080fd5b91908080601f016020809104026020016040519081016040528093929190818152602001838380828437600081840152601f19601f820116905080830192505050505050509192919290505050610a24565b005b6105ac6004803603604081101561047257600080fd5b810190808035906020019064010000000081111561048f57600080fd5b8201836020820111156104a157600080fd5b803590602001918460018302840111640100000000831117156104c357600080fd5b91908080601f016020809104026020016040519081016040528093929190818152602001838380828437600081840152601f19601f8201169050808301925050505050505091929192908035906020019064010000000081111561052657600080fd5b82018360208201111561053857600080fd5b8035906020019184600183028401116401000000008311171561055a57600080fd5b91908080601f016020809104026020016040519081016040528093929190818152602001838380828437600081840152601f19601f820116905080830192505050505050509192919290505050610bea565b005b6105b6610da3565b6040518082815260200191505060405180910390f35b606080600080841180156105e257506001548411155b610654576040517f08c379a00000000000000000000000000000000000000000000000000000000081526004018080602001828103825260108152602001807f496e76616c69642070617065722049440000000000000000000000000000000081525060200191505060405180910390fd5b61065c610da9565b60008086815260200190815260200160002060405180608001604052908160008201548152602001600182018054600181600116156101000203166002900480601f01602080910402602001604051908101604052809291908181526020018280546001816001161561010002031660029004801561071c5780601f106106f15761010080835404028352916020019161071c565b820191906000526020600020905b8154815290600101906020018083116106ff57829003601f168201915b50505050508152602001600282018054600181600116156101000203166002900480601f0160208091040260200160405190810160405280929190818152602001828054600181600116156101000203166002900480156107be5780601f10610793576101008083540402835291602001916107be565b820191906000526020600020905b8154815290600101906020018083116107a157829003601f168201915b505050505081526020016003820154815250509050806020015181604001518260600151829250819150935093509350509193909250565b6000602052806000526040600020600091509050806000015490806001018054600181600116156101000203166002900480601f0160208091040260200160405190810160405280929190818152602001828054600181600116156101000203166002900480156108a85780601f1061087d576101008083540402835291602001916108a8565b820191906000526020600020905b81548152906001019060200180831161088b57829003601f168201915b505050505090806002018054600181600116156101000203166002900480601f0160208091040260200160405190810160405280929190818152602001828054600181600116156101000203166002900480156109465780601f1061091b57610100808354040283529160200191610946565b820191906000526020600020905b81548152906001019060200180831161092957829003601f168201915b5050505050908060030154905084565b6002602052806000526040600020600091509050806000015490806001015490806002018054600181600116156101000203166002900480601f016020809104026020016040519081016040528092919081815260200182805460018160011615610100020316600290048015610a0e5780601f106109e357610100808354040283529160200191610a0e565b820191906000526020600020905b8154815290600101906020018083116109f157829003601f168201915b5050505050908060030154905084565b60015481565b600082118015610a3657506001548211155b610aa8576040517f08c379a00000000000000000000000000000000000000000000000000000000081526004018080602001828103825260108152602001807f496e76616c69642070617065722049440000000000000000000000000000000081525060200191505060405180910390fd5b600360008154809291906001019190505550604051806080016040528060035481526020018381526020018281526020014281525060026000600354815260200190815260200160002060008201518160000155602082015181600101556040820151816002019080519060200190610b22929190610dd1565b50606082015181600301559050507f173a2e48f28b0c8a5b6d09388b2baff10ad199b67a0e2413404f0f0fea9ab9dd6003548383426040518085815260200184815260200180602001838152602001828103825284818151815260200191508051906020019080838360005b83811015610ba9578082015181840152602081019050610b8e565b50505050905090810190601f168015610bd65780820380516001836020036101000a031916815260200191505b509550505050505060405180910390a15050565b60016000815480929190600101919050555060405180608001604052806001548152602001838152602001828152602001428152506000806001548152602001908152602001600020600082015181600001556020820151816001019080519060200190610c59929190610dd1565b506040820151816002019080519060200190610c76929190610dd1565b50606082015181600301559050507f655851656ccb81b8aba2e501375e26e2f686867e95d37d13726a37d0bf281855600154838342604051808581526020018060200180602001848152602001838103835286818151815260200191508051906020019080838360005b83811015610cfb578082015181840152602081019050610ce0565b50505050905090810190601f168015610d285780820380516001836020036101000a031916815260200191505b50838103825285818151815260200191508051906020019080838360005b83811015610d61578082015181840152602081019050610d46565b50505050905090810190601f168015610d8e5780820380516001836020036101000a031916815260200191505b50965050505050505060405180910390a15050565b60035481565b6040518060800160405280600081526020016060815260200160608152602001600081525090565b828054600181600116156101000203166002900490600052602060002090601f016020900481019282601f10610e1257805160ff1916838001178555610e40565b82800160010185558215610e40579182015b82811115610e3f578251825591602001919060010190610e24565b5b509050610e4d9190610e51565b5090565b610e7391905b80821115610e6f576000816000905550600101610e57565b5090565b9056fea265627a7a723158209d6b08628bfe67f068a18987a2dca88b42a551c541a36dcf5c1f3273761663a864736f6c63430005100032",
  "source": "// SPDX-License-Identifier: MIT\r\npragma solidity ^0.5.16;\r\n\r\ncontract PaperStorage {\r\n    struct Paper {\r\n        uint id;\r\n        string cid;  // IPFS CID\r\n        string uploader;\r\n        uint timestamp;\r\n    }\r\n\r\n    struct Download {  // NEW STRUCT\r\n        uint id;\r\n        uint paperId;  // ID of the downloaded paper\r\n        string downloader;  // Username of the downloader\r\n        uint timestamp;\r\n    }\r\n\r\n    mapping(uint => Paper) public papers;\r\n    uint public paperCount;\r\n\r\n    mapping(uint => Download) public downloads;  // NEW MAPPING\r\n    uint public downloadCount;  // NEW COUNTER\r\n\r\n\r\n    event PaperUploaded(uint id, string cid, string uploader, uint timestamp);\r\n    event PaperDownloaded(uint id, uint paperId, string downloader, uint timestamp); // NEW EVENT\r\n\r\n\r\n    function uploadPaper(string memory _cid, string memory _uploader) public {\r\n        paperCount++;\r\n        papers[paperCount] = Paper(paperCount, _cid, _uploader, block.timestamp);\r\n        emit PaperUploaded(paperCount, _cid, _uploader, block.timestamp);\r\n    }\r\n\r\n    function getPaper(uint _id) public view returns (string memory, string memory, uint) {\r\n        require(_id > 0 && _id <= paperCount, \"Invalid paper ID\");\r\n        Paper memory p = papers[_id];\r\n        return (p.cid, p.uploader, p.timestamp);\r\n    }\r\n\r\n    function recordDownload(uint _paperId, string memory _downloader) public { //NEW FUNCTION\r\n        require(_paperId > 0 && _paperId <= paperCount, \"Invalid paper ID\");\r\n        downloadCount++;\r\n        downloads[downloadCount] = Download(downloadCount, _paperId, _downloader, block.timestamp);\r\n        emit PaperDownloaded(downloadCount, _paperId, _downloader, block.timestamp);\r\n    }\r\n}",
  "sourcePath": "C:\\udownloads\\New Project Files\\TrustExaminator - Copy\\TrustExaminerBlockchain\\contracts\\PaperStorage.sol",
  "compiler": {
    "name": "solc",
    "version": "0.5.16+commit.9c3226ce.Emscripten.clang"
  },
  "schemaVersion": "3.4.16",
  "updatedAt": "2025-03-19T17:49:28.492Z",
  "networkType": "ethereum",
  "devdoc": {
    "methods": {}
  },
  "userdoc": {
    "methods": {}
  }
}