{
  "contractName": "PaperStorage",
  "abi": [
    {
      "anonymous": false,
      "inputs": [
        {
          "indexed": false,
          "internalType": "uint256",
          "name": "id",
          "type": "uint256"
        },
        {
          "indexed": false,
          "internalType": "uint256",
          "name": "paperId",
          "type": "uint256"
        },
        {
          "indexed": false,
          "internalType": "string",
          "name": "filename",
          "type": "string"
        },
        {
          "indexed": false,
          "internalType": "string",
          "name": "downloader",
          "type": "string"
        },
        {
          "indexed": false,
          "internalType": "uint256",
          "name": "timestamp",
          "type": "uint256"
        }
      ],
      "name": "PaperDownloaded",
      "type": "event"
    },
    {
      "anonymous": false,
      "inputs": [
        {
          "indexed": false,
          "internalType": "uint256",
          "name": "id",
          "type": "uint256"
        },
        {
          "indexed": false,
          "internalType": "string",
          "name": "cid",
          "type": "string"
        },
        {
          "indexed": false,
          "internalType": "string",
          "name": "filename",
          "type": "string"
        },
        {
          "indexed": false,
          "internalType": "string",
          "name": "uploader",
          "type": "string"
        },
        {
          "indexed": false,
          "internalType": "uint256",
          "name": "timestamp",
          "type": "uint256"
        }
      ],
      "name": "PaperUploaded",
      "type": "event"
    },
    {
      "constant": true,
      "inputs": [],
      "name": "downloadCount",
      "outputs": [
        {
          "internalType": "uint256",
          "name": "",
          "type": "uint256"
        }
      ],
      "payable": false,
      "stateMutability": "view",
      "type": "function"
    },
    {
      "constant": true,
      "inputs": [
        {
          "internalType": "uint256",
          "name": "",
          "type": "uint256"
        }
      ],
      "name": "downloads",
      "outputs": [
        {
          "internalType": "uint256",
          "name": "id",
          "type": "uint256"
        },
        {
          "internalType": "uint256",
          "name": "paperId",
          "type": "uint256"
        },
        {
          "internalType": "string",
          "name": "filename",
          "type": "string"
        },
        {
          "internalType": "string",
          "name": "downloader",
          "type": "string"
        },
        {
          "internalType": "uint256",
          "name": "timestamp",
          "type": "uint256"
        }
      ],
      "payable": false,
      "stateMutability": "view",
      "type": "function"
    },
    {
      "constant": true,
      "inputs": [],
      "name": "paperCount",
      "outputs": [
        {
          "internalType": "uint256",
          "name": "",
          "type": "uint256"
        }
      ],
      "payable": false,
      "stateMutability": "view",
      "type": "function"
    },
    {
      "constant": true,
      "inputs": [
        {
          "internalType": "uint256",
          "name": "",
          "type": "uint256"
        }
      ],
      "name": "papers",
      "outputs": [
        {
          "internalType": "uint256",
          "name": "id",
          "type": "uint256"
        },
        {
          "internalType": "string",
          "name": "cid",
          "type": "string"
        },
        {
          "internalType": "string",
          "name": "filename",
          "type": "string"
        },
        {
          "internalType": "string",
          "name": "uploader",
          "type": "string"
        },
        {
          "internalType": "uint256",
          "name": "timestamp",
          "type": "uint256"
        }
      ],
      "payable": false,
      "stateMutability": "view",
      "type": "function"
    },
    {
      "constant": false,
      "inputs": [
        {
          "internalType": "string",
          "name": "_cid",
          "type": "string"
        },
        {
          "internalType": "string",
          "name": "_filename",
          "type": "string"
        },
        {
          "internalType": "string",
          "name": "_uploader",
          "type": "string"
        }
      ],
      "name": "uploadPaper",
      "outputs": [],
      "payable": false,
      "stateMutability": "nonpayable",
      "type": "function"
    },
    {
      "constant": true,
      "inputs": [
        {
          "internalType": "uint256",
          "name": "_id",
          "type": "uint256"
        }
      ],
      "name": "getPaper",
      "outputs": [
        {
          "internalType": "string",
          "name": "",
          "type": "string"
        },
        {
          "internalType": "string",
          "name": "",
          "type": "string"
        },
        {
          "internalType": "uint256",
          "name": "",
          "type": "uint256"
        }
      ],
      "payable": false,
      "stateMutability": "view",
      "type": "function"
    },
    {
      "constant": false,
      "inputs": [
        {
          "internalType": "uint256",
          "name": "_paperId",
          "type": "uint256"
        },
        {
          "internalType": "string",
          "name": "_filename",
          "type": "string"
        },
        {
          "internalType": "string",
          "name": "_downloader",
          "type": "string"
        }
      ],
      "name": "recordDownload",
      "outputs": [],
      "payable": false,
      "stateMutability": "nonpayable",
      "type": "function"
    }
  ],
  "bytecode": "0x608060405234801561001057600080fd5b506113b8806100206000396000f3fe608060405234801561001057600080fd5b506004361061007d5760003560e01c80635e775a271161005b5780635e775a27146104e15780639fd50b2d1461066e578063a56c2cb914610796578063ee4ea08c146107b45761007d565b80630760ca731461008257806307993f04146101de5780635462fc9c146102f8575b600080fd5b6101dc6004803603606081101561009857600080fd5b8101908080359060200190929190803590602001906401000000008111156100bf57600080fd5b8201836020820111156100d157600080fd5b803590602001918460018302840111640100000000831117156100f357600080fd5b91908080601f016020809104026020016040519081016040528093929190818152602001838380828437600081840152601f19601f8201169050808301925050505050505091929192908035906020019064010000000081111561015657600080fd5b82018360208201111561016857600080fd5b8035906020019184600183028401116401000000008311171561018a57600080fd5b91908080601f016020809104026020016040519081016040528093929190818152602001838380828437600081840152601f19601f8201169050808301925050505050505091929192905050506107d2565b005b61020a600480360360208110156101f457600080fd5b8101908080359060200190929190505050610a29565b604051808060200180602001848152602001838103835286818151815260200191508051906020019080838360005b83811015610254578082015181840152602081019050610239565b50505050905090810190601f1680156102815780820380516001836020036101000a031916815260200191505b50838103825285818151815260200191508051906020019080838360005b838110156102ba57808201518184015260208101905061029f565b50505050905090810190601f1680156102e75780820380516001836020036101000a031916815260200191505b509550505050505060405180910390f35b6104df6004803603606081101561030e57600080fd5b810190808035906020019064010000000081111561032b57600080fd5b82018360208201111561033d57600080fd5b8035906020019184600183028401116401000000008311171561035f57600080fd5b91908080601f016020809104026020016040519081016040528093929190818152602001838380828437600081840152601f19601f820116905080830192505050505050509192919290803590602001906401000000008111156103c257600080fd5b8201836020820111156103d457600080fd5b803590602001918460018302840111640100000000831117156103f657600080fd5b91908080601f016020809104026020016040519081016040528093929190818152602001838380828437600081840152601f19601f8201169050808301925050505050505091929192908035906020019064010000000081111561045957600080fd5b82018360208201111561046b57600080fd5b8035906020019184600183028401116401000000008311171561048d57600080fd5b91908080601f016020809104026020016040519081016040528093929190818152602001838380828437600081840152601f19601f820116905080830192505050505050509192919290505050610cf5565b005b61050d600480360360208110156104f757600080fd5b8101908080359060200190929190505050610f3f565b60405180868152602001806020018060200180602001858152602001848103845288818151815260200191508051906020019080838360005b83811015610561578082015181840152602081019050610546565b50505050905090810190601f16801561058e5780820380516001836020036101000a031916815260200191505b50848103835287818151815260200191508051906020019080838360005b838110156105c75780820151818401526020810190506105ac565b50505050905090810190601f1680156105f45780820380516001836020036101000a031916815260200191505b50848103825286818151815260200191508051906020019080838360005b8381101561062d578082015181840152602081019050610612565b50505050905090810190601f16801561065a5780820380516001836020036101000a031916815260200191505b509850505050505050505060405180910390f35b61069a6004803603602081101561068457600080fd5b810190808035906020019092919050505061113d565b604051808681526020018581526020018060200180602001848152602001838103835286818151815260200191508051906020019080838360005b838110156106f05780820151818401526020810190506106d5565b50505050905090810190601f16801561071d5780820380516001836020036101000a031916815260200191505b50838103825285818151815260200191508051906020019080838360005b8381101561075657808201518184015260208101905061073b565b50505050905090810190601f1680156107835780820380516001836020036101000a031916815260200191505b5097505050505050505060405180910390f35b61079e6112a3565b6040518082815260200191505060405180910390f35b6107bc6112a9565b6040518082815260200191505060405180910390f35b6000831180156107e457506001548311155b610856576040517f08c379a00000000000000000000000000000000000000000000000000000000081526004018080602001828103825260108152602001807f496e76616c69642070617065722049440000000000000000000000000000000081525060200191505060405180910390fd5b6003600081548092919060010191905055506040518060a00160405280600354815260200184815260200183815260200182815260200142815250600260006003548152602001908152602001600020600082015181600001556020820151816001015560408201518160020190805190602001906108d69291906112af565b5060608201518160030190805190602001906108f39291906112af565b50608082015181600401559050507fe61763227aa0d7d7b4623c2eb5bed300965b1068f8501d637df89bc65b9663e360035484848442604051808681526020018581526020018060200180602001848152602001838103835286818151815260200191508051906020019080838360005b8381101561097f578082015181840152602081019050610964565b50505050905090810190601f1680156109ac5780820380516001836020036101000a031916815260200191505b50838103825285818151815260200191508051906020019080838360005b838110156109e55780820151818401526020810190506109ca565b50505050905090810190601f168015610a125780820380516001836020036101000a031916815260200191505b5097505050505050505060405180910390a1505050565b60608060008084118015610a3f57506001548411155b610ab1576040517f08c379a00000000000000000000000000000000000000000000000000000000081526004018080602001828103825260108152602001807f496e76616c69642070617065722049440000000000000000000000000000000081525060200191505060405180910390fd5b610ab961132f565b6000808681526020019081526020016000206040518060a001604052908160008201548152602001600182018054600181600116156101000203166002900480601f016020809104026020016040519081016040528092919081815260200182805460018160011615610100020316600290048015610b795780601f10610b4e57610100808354040283529160200191610b79565b820191906000526020600020905b815481529060010190602001808311610b5c57829003601f168201915b50505050508152602001600282018054600181600116156101000203166002900480601f016020809104026020016040519081016040528092919081815260200182805460018160011615610100020316600290048015610c1b5780601f10610bf057610100808354040283529160200191610c1b565b820191906000526020600020905b815481529060010190602001808311610bfe57829003601f168201915b50505050508152602001600382018054600181600116156101000203166002900480601f016020809104026020016040519081016040528092919081815260200182805460018160011615610100020316600290048015610cbd5780601f10610c9257610100808354040283529160200191610cbd565b820191906000526020600020905b815481529060010190602001808311610ca057829003601f168201915b505050505081526020016004820154815250509050806020015181606001518260800151829250819150935093509350509193909250565b6001600081548092919060010191905055506040518060a001604052806001548152602001848152602001838152602001828152602001428152506000806001548152602001908152602001600020600082015181600001556020820151816001019080519060200190610d6a9291906112af565b506040820151816002019080519060200190610d879291906112af565b506060820151816003019080519060200190610da49291906112af565b50608082015181600401559050507f7034c696bfc563a7ef5534357ee7669634266a234da730e8474f4e5fd8d4f1196001548484844260405180868152602001806020018060200180602001858152602001848103845288818151815260200191508051906020019080838360005b83811015610e2e578082015181840152602081019050610e13565b50505050905090810190601f168015610e5b5780820380516001836020036101000a031916815260200191505b50848103835287818151815260200191508051906020019080838360005b83811015610e94578082015181840152602081019050610e79565b50505050905090810190601f168015610ec15780820380516001836020036101000a031916815260200191505b50848103825286818151815260200191508051906020019080838360005b83811015610efa578082015181840152602081019050610edf565b50505050905090810190601f168015610f275780820380516001836020036101000a031916815260200191505b509850505050505050505060405180910390a1505050565b6000602052806000526040600020600091509050806000015490806001018054600181600116156101000203166002900480601f016020809104026020016040519081016040528092919081815260200182805460018160011615610100020316600290048015610ff15780601f10610fc657610100808354040283529160200191610ff1565b820191906000526020600020905b815481529060010190602001808311610fd457829003601f168201915b505050505090806002018054600181600116156101000203166002900480601f01602080910402602001604051908101604052809291908181526020018280546001816001161561010002031660029004801561108f5780601f106110645761010080835404028352916020019161108f565b820191906000526020600020905b81548152906001019060200180831161107257829003601f168201915b505050505090806003018054600181600116156101000203166002900480601f01602080910402602001604051908101604052809291908181526020018280546001816001161561010002031660029004801561112d5780601f106111025761010080835404028352916020019161112d565b820191906000526020600020905b81548152906001019060200180831161111057829003601f168201915b5050505050908060040154905085565b6002602052806000526040600020600091509050806000015490806001015490806002018054600181600116156101000203166002900480601f0160208091040260200160405190810160405280929190818152602001828054600181600116156101000203166002900480156111f55780601f106111ca576101008083540402835291602001916111f5565b820191906000526020600020905b8154815290600101906020018083116111d857829003601f168201915b505050505090806003018054600181600116156101000203166002900480601f0160208091040260200160405190810160405280929190818152602001828054600181600116156101000203166002900480156112935780601f1061126857610100808354040283529160200191611293565b820191906000526020600020905b81548152906001019060200180831161127657829003601f168201915b5050505050908060040154905085565b60015481565b60035481565b828054600181600116156101000203166002900490600052602060002090601f016020900481019282601f106112f057805160ff191683800117855561131e565b8280016001018555821561131e579182015b8281111561131d578251825591602001919060010190611302565b5b50905061132b919061135e565b5090565b6040518060a0016040528060008152602001606081526020016060815260200160608152602001600081525090565b61138091905b8082111561137c576000816000905550600101611364565b5090565b9056fea265627a7a7231582003e6ec67ad1690ff18ddbe6dc815e71ae5377a3a68c1cbb50bb9e610f0aff23764736f6c63430005100032",
  "source": "// SPDX-License-Identifier: MIT\r\npragma solidity ^0.5.16;\r\n\r\ncontract PaperStorage {\r\n    struct Paper {\r\n        uint id;\r\n        string cid;         // IPFS CID\r\n        string filename;    // Filename of the paper\r\n        string uploader;\r\n        uint timestamp;\r\n    }\r\n\r\n    struct Download {\r\n        uint id;\r\n        uint paperId;\r\n        string filename;     // Filename of the paper downloaded\r\n        string downloader;\r\n        uint timestamp;\r\n    }\r\n\r\n    mapping(uint => Paper) public papers;\r\n    uint public paperCount;\r\n\r\n    mapping(uint => Download) public downloads;\r\n    uint public downloadCount;\r\n\r\n    event PaperUploaded(uint id, string cid, string filename, string uploader, uint timestamp); // Added filename\r\n    event PaperDownloaded(uint id, uint paperId, string filename, string downloader, uint timestamp); // Added filename and downloader\r\n\r\n\r\n    function uploadPaper(string memory _cid, string memory _filename, string memory _uploader) public { // Added _filename\r\n        paperCount++;\r\n        papers[paperCount] = Paper(paperCount, _cid, _filename, _uploader, block.timestamp); // Store filename\r\n        emit PaperUploaded(paperCount, _cid, _filename, _uploader, block.timestamp); // Emit filename\r\n    }\r\n\r\n    function getPaper(uint _id) public view returns (string memory, string memory, uint) {\r\n        require(_id > 0 && _id <= paperCount, \"Invalid paper ID\");\r\n        Paper memory p = papers[_id];\r\n        return (p.cid, p.uploader, p.timestamp);\r\n    }\r\n\r\n    function recordDownload(uint _paperId, string memory _filename, string memory _downloader) public { // Added _filename\r\n        require(_paperId > 0 && _paperId <= paperCount, \"Invalid paper ID\");\r\n        downloadCount++;\r\n        downloads[downloadCount] = Download(downloadCount, _paperId, _filename, _downloader, block.timestamp); // Store filename and downloader\r\n        emit PaperDownloaded(downloadCount, _paperId, _filename, _downloader, block.timestamp); // Emit filename and downloader\r\n    }\r\n}",
  "sourcePath": "C:\\udownloads\\New Project Files\\TrustExaminatorv1\\TrustExaminerBlockchain\\contracts\\PaperStorage.sol",
  "compiler": {
    "name": "solc",
    "version": "0.5.16+commit.9c3226ce.Emscripten.clang"
  },
  "schemaVersion": "3.4.16",
  "updatedAt": "2025-04-05T03:44:52.975Z",
  "networkType": "ethereum",
  "devdoc": {
    "methods": {}
  },
  "userdoc": {
    "methods": {}
  }
}